:020000040800F2
:10000000480B00203502000851240008951E000806
:1000100093230008DD1A000877350008000000006F
:10002000000000000000000000000000E12C0008BB
:10003000F11C0008000000006D290008F52D0008E3
:100040004F0200084F0200084F0200084F0200084C
:100050004F0200084F0200084F0200084F0200083C
:100060004F0200084F0200084F0200084F0200082C
:100070004F0200084F0200084F0200084F0200081C
:100080004F0200084F0200084F0200084F0200080C
:100090004F0200084F0200084F0200084F020008FC
:1000A0004F0200084F0200084F0200084F020008EC
:1000B000592E00084F0200084F0200084F020008A6
:1000C0004F0200084F0200084F0200084F020008CC
:1000D0004F020008953200084F0200084F02000846
:1000E0004F0200084F0200084F02000800F002F81B
:1000F00000F090F80AA090E8000C82448344AAF132
:100100000107DA4501D100F085F8AFF2090EBAE82F
:100110000F0013F0010F18BFFB1A43F0010318473B
:10012000849C0000A49C0000103A24BF78C878C1C9
:10013000FAD8520724BF30C830C144BF04680C60ED
:10014000704700000023002400250026103A28BF35
:1001500078C1FBD8520728BF30C148BF0B60704739
:100160006E2900F07583702900F0ED86662907F08E
:100170009082652907F08D82672907F08A826129BC
:10018000AFF3008003681B0A28BF41F08001692992
:1001900000F0EE80642900F0EB80752900F0E88023
:1001A0006F2900F07A86782900F0B986E92900F0F5
:1001B0001586E42900F01286F52900F00F86EF2954
:1001C00000F07786F82900F0B8860368DB0928BFBD
:1001D00041F08001632900F08485732900F089854E
:1001E000E32900F07587F32900F07A870020704733
:1001F0001FB500F0D5FE04000020002106F080F9B4
:10020000401C60600020002106F064F9E0601FBD22
:1002100010B510BD01F026F81146FFF7E9FF05F013
:100220004BF801F04DF803B4FFF7F2FF03BC03F005
:100230009CFA00000948804709480047FEE7FEE7AE
:10024000FEE7FEE7FEE7FEE7FEE7FEE7FEE7FEE786
:1002500004480549054A064B70470000F92D00087F
:10026000ED00000848050020480B0020480700204A
:1002700048070020704710B54C1084EA530404D599
:100280004042C1F1000138BF491E1B4204D5524211
:10029000C3F1000338BF5B1E00F0C6F914F0804FB5
:1002A00004D04042C1F1000138BF491E14F0004F94
:1002B00004D05242C3F1000338BF5B1E10BD0000E2
:1002C0000FB4044910B503AA029800F017FD10BC42
:1002D0005DF814FB380000200FB4044910B503AAE0
:1002E000029800F00BFD10BC5DF814FB38000020F4
:1002F0000FB41CB5084B06AA7B44694600900598CC
:1003000000F0CDFC04460020694600F0DBFC2046EE
:100310001CBC5DF814FB0000C909000070B50C4658
:100320000546012A05D02878800600D5EA69002311
:1003300002E0012305E05B1C934202D2E05C00284E
:10034000F9D1A869E618C01AA861286A1844286279
:10035000284600F0EBF904E0D5E9012114F8010B7F
:100360009047B442F8D3284600F0F6F970BD00007B
:100370002DE9F0410646002410687529314616A57E
:1003800010D000F0FAF9002802DA404213A507E085
:1003900031688A0701D512A502E0490704D511A5E5
:1003A000012401E000F0F2F900210A2206F12407FD
:1003B00009E0B0FBF2FCB0FBF2F302FB1C003030B2
:1003C00078541846491C0028F3D123462A46304663
:1003D000BDE8F04100F0E3B9000000002D0000008E
:1003E0002B000000200000002DE9F05F8946044644
:1003F0004FF0000ADFF874B1FB44C0F820A020469B
:10040000E1688847002874D0252806D0D4E9012166
:100410009047206A401C2062F1E700265F46204694
:10042000E16888472028054607DB312D05D2781979
:1004300010F8200C08B10643F1E7B00701D526F00B
:100440000406C4F81CA00027C4F818A02A2D09D05F
:10045000284603F083F938B304EB8708303DC8F829
:10046000185019E059F8041B204604EB87029161EB
:10047000E1688847012F054618D1E069002820DA95
:1004800026F020061DE0D8F8180000EB800005EBF0
:1004900040003038C8F818002046E1688847054613
:1004A00003F05CF90028EED1012F0AD02E2D08D1DF
:1004B0002046E16888477F1C0546022F46F020064B
:1004C000C4DBA069002803DA404246F00106A061BF
:1004D000F00701D026F010066C2D0BD0682D09D046
:1004E0004C2D39D06A2D35D0742D35D07A2D33D09E
:1004F00016E038E0E1682F4620468847B8420546B6
:1005000009D16C2F26D04FF48060E1680643204665
:100510008847054604E06C2F1AD04FF480700643DC
:100520000DB3A5F14100192802D8203546F4006624
:100530004A462946204626604E46FFF711FE80B106
:1005400001280BD0F61D26F0070000F1080956E738
:100550004020E4E78020D8E70020D6E706F1040930
:100560004DE7284652E7206ABDE8F09F90970000CB
:1005700040EA010310B59B070FD1042A0DD310C820
:1005800008C9121F9C42F8D020BA19BA884201D972
:10059000012010BD4FF0FF3010BD1AB1D30703D0BA
:1005A000521C07E0002010BD10F8013B11F8014B70
:1005B0001B1B07D110F8013B11F8014B1B1B01D18C
:1005C000921EF1D1184610BD40EA0103024630B533
:1005D0009B0710D14FF0013400E008C208C91D1B71
:1005E0009D4315EAC41FF8D013F0FF0102F8011B68
:1005F0000DD01B0AF8E711F8013B002B02F8013B74
:1006000005D011F8013B002B02F8013BF3D130BDBE
:1006100002F0FF0343EA032242EA024200F0A0BCD8
:10062000704770477047704753EA020C00F06980CA
:100630002DE9F04B4FF00006002B1FBFB3FA83F5F6
:1006400003FA05F424FA05F65E4012BF1643B2FA27
:1006500082F502FA05F4C5F120051EBF22FA05FC59
:1006600044EA0C04203556EA044C4FEA144418BFFF
:10067000641C4FF000084FF00009904271EB030C2E
:1006800039D3002919BFB1FA81F701FA07F6B0FA98
:1006900080F700FA07F6C7F120071EBF20FA07FC13
:1006A00046EA0C062037B6FBF4FCA7EB0507103F23
:1006B00007F01F0BCBF120060CFA0BFB2CFA06F609
:1006C00044BFB3460026202FA4BF5E464FF0000B68
:1006D0005BEA060C08BF4FF0010B19EB0B09ABFBF3
:1006E000027C48EB0608C01B06FB02CC0BFB03CCCC
:1006F00071EB0C01C1E70B46024641464846BDE896
:10070000F08B13B54FF000004FF00001AFF3008005
:10071000BDE81C40704710B500F046FC006810BDF5
:1007200010B5044600F040FC046010BD70B50446EE
:1007300085690068C10601D5302600E02026C00783
:1007400007D070BDD4E9012130469047206A401C93
:1007500020626D1EF6D570BD70B5044685690078BF
:10076000C00707D170BDD4E9012120209047206A3D
:10077000401C20626D1EF6D570BD09684A0501D582
:1007800040B27047C905FCD500B2704709684A05F8
:1007900001D5C0B27047C905FCD580B270472DE9BC
:1007A000F0470D4699469246044600F12408016838
:1007B000880604D5E06921F01001216000E00120E5
:1007C000A84201DD471B00E00027A1697A1902EB6E
:1007D0000900081AA0612078C00602D42046FFF75D
:1007E000A5FF002608E0D4E901211AF80600904789
:1007F000206A401C761C20624E45F4DB2078C0063F
:100800000AD52046FFF792FF06E0D4E90121302007
:100810009047206A401C2062381EA7F10107F4DCD3
:1008200007E0D4E9012118F805009047206A401C30
:100830002062281EA5F10105F3DC2046FFF78CFF9E
:100840002078000602D50220BDE8F0870120FBE7F2
:1008500011680268006A530501D508700AE0D305E3
:1008600001D5088006E0130603D5C217C1E90002CE
:1008700000E008600120704770472DE9FF4F0C46EB
:100880001E464FF0FF378BB0D2E90001DDF86080E3
:100890000A908A46C1F30A5505B93D46002108462B
:1008A0004FF00000BAF1000F00F4400005DA00EB51
:1008B00080004FF4400101EA50004FEA9059B9F12D
:1008C000010F00DDB9460A9850EA4A000ED044F6FE
:1008D0001050A5F2FF3545432F14B8F1000F1ED07C
:1008E0007542291E1EDDC9F100021CE0B8F1010F9E
:1008F0004FF0000001D0302103E0F24305E0215425
:10090000401CB042FBDB30460022002121540B99F1
:10091000C1F80880C1E900200FB0BDE8F08FBD1B11
:100920006D1CDEE74A4600DA694206A800F0DCFBEF
:1009300006AB93E8070003AB83E8070050460A992B
:1009400000F008FD8DE80700A0F500501F3800906A
:100950000398002D09DD42F21F014A46084403A90D
:100960000390684600F067FF08E0A0F500504A4693
:100970001F3803A90390684600F071FF8DE8070057
:100980000004000C03D04FF0FF30410800E0104697
:10099000B8F1000F03D00022009215461EE0751E2C
:1009A00005D400F005FB303262556D1EF9D5B34613
:1009B0000122084302D000227F1C04E02078302866
:1009C00001D100227F1E002A099786D01DE0112D3B
:1009D00007DA00F0EDFA303262556D1C50EA010280
:1009E000F5D1084302D00098C8B10EE00021681E7E
:1009F00005E0235C625C63542254401E491C814222
:100A0000F7DBAB46A81B401E0990002004F80B0042
:100A10000B98099AC0F80880C0E9002B7CE71126E2
:100A20004FF0000859E72DE9F04F88460446D21DE3
:100A300022F0070191B0D1E90001CDE90A0102F0ED
:100A400011FE02460B98C00F01D02D2007E0206850
:100A5000810701D52B2002E0202101EAC000032AF2
:100A6000099001D0072A05DB03464146204600F0E5
:100A7000E5FA0BE12078800601D5E06900E0062068
:100A8000B8F1650F814606D0B8F1660F18D0B8F1FD
:100A9000670F70D131E00020B9F1110F009001DB38
:100AA000112301E009F101030AAA01A90CA8FFF72B
:100AB000E4FEDDE90C70002609F10105834647E0FC
:100AC00001204B4600904FF000470AAA01A90CA84C
:100AD000FFF7D3FEDDE90DB00C995D46002610B995
:100AE00009F101000D18B9EB050003D4C0F1FF3680
:100AF00009F10105A5EB09002BE0B9F1010F01DABD
:100B00004FF001090020B9F1110F0090484601DDB6
:100B1000112300E003460AAA01A90CA8FFF7ADFEC5
:100B2000DDE90C704D4600268346207800070AD484
:100B3000AB4500DA5D4601A8012D04DD411911F82D
:100B4000011C302907D04F4502DA17F1040F04DAEF
:100B5000012082460FE06D1EEEE7002F02DCED1B48
:100B60003E4403E0781CA84200DD7D1CB81B00F168
:100B7000010A4FF000472078000703D4AA4501DBA3
:100B80004FF0FF3A0021B7F1004F0DF143088DF807
:100B9000431024D002202B23002F01DA7F422D2383
:100BA0000A21021EA0F1010000DC5FB197FBF1FCFD
:100BB00097FBF1F201FB1C7C17460CF1300C08F896
:100BC00001CDEEE7A8F1010003702188090501D5E8
:100BD000452100E06521A0F1010800F8011C0998F9
:100BE0000FA9A1EB0807FF1D00B10120411901EB7E
:100BF000EA70A1693844081A401EA0612078C00636
:100C000002D42046FFF792FD099828B1D4E90121CA
:100C10009047206A401C20622078C00622D52046DA
:100C2000FFF784FD1EE0002E04DBB34502DD01A8C2
:100C3000805D00E03020D4E901219047206A401C0B
:100C40002062761CAAF101005FEA000A0AD100F0D6
:100C5000A7F9C0680168405CD4E901219047206A87
:100C6000401C2062281EA5F10105DCDC07E0D4E968
:100C7000012118F8010B9047206A401C2062381EA1
:100C8000A7F10107F3DC2046FFF766FD032011B052
:100C900043E6000001694A1C02610878704700B50C
:100CA0008FB0CDE901310021059105497944CDE9A5
:100CB000031011466846FFF797FB0FB000BD000018
:100CC000E5FFFFFF0A6802F8010B0A60704710B5E4
:100CD000436913B1AFF3008001E0FFF71FFB012070
:100CE00010BD127800F124010A7000224A7001221E
:100CF000EDE711684FF0FF32E9E70000074B70B5F0
:100D00000D467B44FFF7CBFF0446284600F05AFA15
:100D100010B14FF0FF3070BD204670BD173E00008F
:100D20002DE9FF5F15468A460446DFF8AC80F8449B
:100D30000027D8E900103E46CDE9001010E03AF84F
:100D400016106A4602A800F041FA411C07D021782B
:100D5000890603D5E269391891420DD80744761CFB
:100D60002078800602D5E069B84205DDAE42E6DBB8
:100D70003AF816000028E2D1A069C01BA061204605
:100D8000FFF7D4FCD8E90010CDE90010002017E0EF
:100D90003AF818106A4602A800F018FAB0F1FF3FBE
:100DA00081460BD000250DF1080B05E0D4E90121A7
:100DB0001BF8050090476D1C4D45F7D308F1010065
:100DC000B0428046E4DB206A384420622046FFF7C8
:100DD000C3FCBDE8FF9F0000BE8E00002DE9F0417E
:100DE0008046D21D22F007020025D2E90002F52933
:100DF00015A614D0011E72F1000106DA0023D0EB13
:100E0000030063EB020211A608E0D8F800108B077C
:100E100001D50FA602E0490701D50EA6012511460E
:100E2000002408F1240704E000F0C2F830323A55FB
:100E3000641C50EA0102F7D12B4632462146404657
:100E4000BDE8F041FFF7ABBC000000002D00000042
:100E50002B0000002000000030B4002100F1240429
:100E600008E002F00705D208303542EA4372DB0899
:100E70006554491C52EA0305F3D10468002310A20B
:100E8000250707D5A40600D421B1C46901230DA20A
:100E9000641EC46130BCFFF782BC10B50446214615
:100EA0001068FFF773FC02462046BDE8104000239F
:100EB000D2E7D21D22F00701D1E90023CCE70000E0
:100EC0000000000030000000F0B40D460188090564
:100ED00002D5214C7C4402E01F4C7C440E3400219E
:100EE00000F1240608E002F00F071209E75D42EA6C
:100EF00003721B097754491C52EA0307F3D10278A5
:100F00000023120704D5702D06D009B10223113435
:100F10002246F0BCFFF743BC01231034F8E770B55C
:100F200004460D4621461068FFF730FC024629466C
:100F30002046BDE870400023C6E7D21D22F007031B
:100F4000D3E90023C0E70368126843F0200303607D
:100F50000823C3610023B7E7208D00004FF0000293
:100F60000429C0F0128010F0030C00F05181CCF184
:100F7000040CBCF1020F18BF00F8012BA8BF20F829
:100F8000022BA1EB0C0100F043B95FEAC17C24BF46
:100F900000F8012B00F8012B48BF00F8012B704727
:100FA000004870470805002000487047E80400200A
:100FB00030B5B0F10A024FEA900E71F100034EEA2B
:100FC000817EB0EB0E0061EB91014FEA101E4EEAFC
:100FD000017E10EB0E0041EB11114FEA102E4EEA8C
:100FE000016E10EB0E0041EB11214FEA104E4EEA5C
:100FF000014E10EB0E0041EB1141401841F1000190
:101000004FEAD00040EA41704FEAD10110EB800571
:101010004FEA810444EA907444EB01046D1944EBF7
:101020000404521BA3414FF0000348BF0A3200D50D
:1010300030BD401C41F1000130BD00002DE9F04100
:101040001F46044603260168072A01F4006004DBFA
:1010500008B116A505E016A503E008B115A500E046
:1010600015A521F010002060A069C01EA0610FB17D
:10107000401EA0612046FFF759FB4FB1D4E9012182
:1010800038469047206A401C2062C01C206206E05F
:10109000206AFAE7D4E9012115F8010B9047761E82
:1010A000F8D22046FFF758FBBDE8F0814E414E00D4
:1010B0006E616E00494E4600696E660010B5436968
:1010C00013B1AFF3008001E0FFF72AFE012010BD4D
:1010D000128800F1240182840022C2840122EDE7FB
:1010E00011684FF0FF32E9E72DE9F04781461646D7
:1010F0008AB0334878440DC88DE80D0030487844F4
:10110000801C03AC0DC884E80D0041F69B300844F8
:10111000372190FBF1F290FBF1F5A5F1800501FB81
:1011200012041B3C02D56442012000E00020DFF8DD
:1011300090A080460027FA44AAF1BE0A0DE0E0071D
:1011400009D03246684607EB47010AEB810100F0FF
:1011500086FB8DE8070064107F1C002CEFD1184F30
:101160007F44AC3F18E0E80714D007EB04100DF102
:10117000180A90E80E008AE80E00C068F04201D11B
:1011800098190890324606A903A800F068FB03AB43
:1011900083E807006D10641C002DE4D132466946D7
:1011A000B8F1000F03A802D000F045FB01E000F009
:1011B00056FBC9E90001C9F808200AB0BDE8F0876C
:1011C000448C0000007B00F08000704770B516462C
:1011D0000C46054600F06CF8036893F801010128FD
:1011E00006D0FF2C0FD8185D68B101202C7070BD9F
:1011F000D3F807013246214603F207130344284679
:10120000BDE8704018474FF0FF3070BD4FF000024E
:1012100000B5134694469646203922BFA0E80C50EC
:10122000A0E80C50B1F12001BFF4F7AF090728BFC7
:10123000A0E80C5048BF0CC05DF804EB890028BF43
:1012400040F8042B08BF704748BF20F8022B11F06C
:10125000804F18BF00F8012B70470000004870470E
:10126000E80400207546FFF7F9FFAE460500694621
:10127000534620F00700854618B020B5FEF7E8FF7A
:10128000BDE820404FF000064FF000074FF0000887
:101290004FF0000B21F00701AC46ACE8C009ACE808
:1012A000C009ACE8C009ACE8C0098D467047000031
:1012B00010B5FFF775FE001D10BD00BF45520000C0
:1012C00010B50446AFF300802046BDE81040FEF79D
:1012D000AABF00004FF0013C50F8042B51F8043B2A
:1012E0009A4221D1A2EB0C03934313EACC1317D1FA
:1012F00050F8042B51F8043B9A4215D1A2EB0C0391
:10130000934313EACC130BD150F8042B51F8043B50
:101310009A4209D1A2EB0C03934313EACC13DBD01E
:101320004FF00000704700BFD01A01BAB1FA81F146
:1013300001F0180122FA01F0CB40C1F12001DBB22B
:10134000C0B2C01A2CFA01F3D11A914311EAC311A9
:10135000E6D170475FEA400C08BF91F0000F4FEAFA
:101360008C234FEAC12243EA51514FEA1C5018BF67
:1013700000F5F0404FEA300018BF41F000415FEA4D
:101380006C5C00F02980BCF1FF3F08BF40F080405A
:101390007047130C06BF12044FF0100C4FF0000CF6
:1013A000130E04BF12020CF1080C130F04BF12013C
:1013B0000CF1040C930F04BF92000CF1020CD30F3C
:1013C00004BF52000CF1010C11464FF00002A0F1D5
:1013D0001F00A0EB0C00704711F0004F08BF7047D2
:1013E00031F000413FF4D5AF0B0C06BF09044FF0BC
:1013F000100C4FF0000C0B0E04BF09020CF1080C8E
:101400000B0F04BF09010CF1040C8B0F04BF890002
:101410000CF1020CCB0F04BF49000CF1010CCCF114
:101420002003A0EB0C0022FA03F302FA0CF241EACB
:10143000030100F10100704720F07F4C80EA0300B7
:1014400023F07F47ACEB070303F57C5300F000402B
:1014500003F1FF032DE980494FEA154B09B44FEA28
:10146000144325EA0B4E24EA03480FF2042606EB48
:10147000132749083E785FEA320203FB0667C7F587
:10148000000707FB06F64FEA54374FEAD64606F147
:10149000020607FB066CCCF1005C4FEA1C472CEA05
:1014A000074C07FB06F40CFB06F504EB15464FEA68
:1014B000961634BF00204FF000404FEAD13706FBAC
:1014C00007FC4FEA1C4C0CFB0BF7D21B03FB0CF781
:1014D00061EB07010CFB0EF7B0EB074072EB174214
:1014E0000CFB08F734BFA2EB0742B2EB074261EBFB
:1014F00017414FEA0C444FEA910706FB07FC4FEAFD
:101500001C4C0CFB0BF7B0EBC74072EB573203FBE4
:101510000CF734BFA2EBC742B2EBC74261EB5731C5
:101520000CFB0EF7B0EBC70072EB57720CFB08F721
:1015300034BFA2EBC702B2EBC70261EB5771039F46
:101540004FEA816141EA921104EBCC044FEAD137B2
:101550004FEA826206FB07FC42EA90124FEA806083
:101560004FEA1C4C0CFB0BF7D21B03FB0CF761EB97
:1015700007010CFB0EF7B0EB074072EB17420CFBB8
:1015800008F734BFA2EB0742B2EB074261EB174109
:101590004FEA8C554FEA910704EB9C2406FB07FCAD
:1015A0004FEA1C4C0CFB0BF7B0EBC74072EB573209
:1015B00003FB0CF734BFA2EBC742B2EBC74261EBAF
:1015C00057310CFB0EF7B0EBC70072EB57720CFBF8
:1015D00008F734BFA2EBC702B2EBC70261EB577149
:1015E00015EB4C254FEA816141EA92114FEA826284
:1015F0004FEAD13742EA901206FB07FC44F100049F
:101600004FEA80604FEA1C4C0CFB0BF7D21B03FB2C
:101610000CF761EB07010CFB0EF7B0EB074072EB28
:1016200017420CFB08F734BFA2EB0742B2EB0742AC
:1016300061EB174115EB1C154FEA813141EA9241EC
:101640004FEA823242EA90424FEA80304FEA0C760B
:1016500044F1000448EA03434EEA0B484FF0000E01
:10166000B2EB080C71EB030724BF624639464EEB20
:101670000E0E4FF0000B0018524149414BEB0B0B83
:10168000B2EB080C71EB03077BF1000B24BF624641
:1016900039464EEB0E0E4FF0000B001852414941F7
:1016A0004BEB0B0BB2EB080C71EB03077BF1000B60
:1016B00024BF624639464EEB0E0E51EA020718BFB0
:1016C00046F0010616EB0E7655F1000254F10001CA
:1016D00003D5BDE88901BDE80088BDE88901BDE802
:1016E0000048B619524141EB0101A3F101037047D3
:1016F00080807F7E7D7C7B7A79787776767574734F
:10170000727171706F6E6E6D6C6C6B6A6A6968680D
:10171000676666656464636362616160605F5F5EA3
:101720005E5D5D5C5C5B5B5A5A5959585857575619
:10173000565555555454535352525251515050507E
:101740004F4F4F4E4E4D4D4D4C4C4C4B4B4B4A4AD0
:101750004A49494948484847474747464646454514
:10176000454444444443434343424242424141414D
:10177000002B26D4770021D01CB54FEA370703B4DD
:101780004FF010004FF010014FF000000FBCBDE80B
:1017900010400BF1010BBBF1010F08BF5FEA170707
:1017A00022BF12F1010211F101014FF0004143F19A
:1017B000000300F0004043EA00007047F9D35708E7
:1017C000DAE746EA064613F1400F4FEA16461FDDF8
:1017D00013F1200FDFBF16430A46002120335B427E
:1017E000C8D0C3F1200746EA064602FA07F74FEAD7
:1017F000164646EA0706C3F1200722FA03F201FA69
:1018000007F721FA03F14FF0000342EA0702B1E7BC
:1018100046EA020646EA06464FEA164646EA010648
:10182000BCBF46EA0646360C4FF000034FF00002FC
:101830004FF000019EE72DE9C048934630B491E88F
:10184000380007C831EA400C48BF34EA430C03D5DE
:10185000FFF7F2FDFFF78CFFF0BCBDE800882DE933
:10186000C048934630B491E8380007C810F0804F64
:1018700008BF13F0804F03D100F005F8FFF778FFA1
:10188000F0BCBDE8008820F07F4780EA030023F029
:101890007F4C07EB0C03A3F57C5300F00040A3F151
:1018A000FE0392F0000F00F0B38095F0000F00F0FF
:1018B00077802DE901494FEA11404FEA144621EAA9
:1018C000004800FB06FC24EA064708FB06F607FB77
:1018D00008F800FB07F718EB06484CEB164C4FEAEC
:1018E000124B18EB07484FEA15464CEB174022EA1B
:1018F0000B4E0BFB06FC25EA06470EFB06F607FB24
:101900000EFE0BFB07F71EEB064E4CEB164C4FF092
:1019100000061EEB074E4CEB174B18EB0B0840F183
:10192000000018EB0E0B58EB000840F100008F1A76
:101930004FF000013CBFC943661B14BFB5EB040C5C
:1019400000213CBFC943F61B4FEA17444EEA8E0EF6
:1019500027EA04454FEA1C4704FB07622CEA074CC0
:1019600005FB07F70CFB05F604FB0CFC16EB074622
:1019700042EB174216EB0C4642EB1C421BEB0606F1
:1019800058EB0202414146EA9E0601D5BDE80189B5
:10199000B619524141EB0101A3F10103BDE80189F0
:1019A0004FEA14454FEA114724EA054621EA074C5D
:1019B00005FB07F406FB07F70CFB06F105FB0CFC27
:1019C00011EB074144EB17444FEA124711EB0C416E
:1019D00044EB1C4422EA074C05FB07F206FB07F721
:1019E0000CFB06F605FB0CFC16EB074642EB174218
:1019F00016EB0C4642EB1C456A1854F1000148BF37
:101A00007047B619524141EB0101A3F10103704740
:101A100095F0000F37D04FEA11424FEA144721EA00
:101A2000024624EA074C02FB07F106FB07F70CFB12
:101A300006F402FB0CFC14EB074441EB17414FEAA0
:101A4000154714EB0C4441EB1C4125EA074C02FB03
:101A500007F506FB07F70CFB06F602FB0CFC16EB82
:101A6000074645EB174516EB0C4645EB1C42121991
:101A700051F1000148BF7047B619524141EB0101D5
:101A8000A3F1010370474FEA14454FEA114724EAD6
:101A9000054621EA074C05FB07F106FB07F70CFB9F
:101AA00006F24FF0000605FB0CFC12EB074241EB7F
:101AB000174112EB0C4251EB1C4148BF7047921882
:101AC00041EB0101A3F101037047002203E0002371
:101AD0000370401C521C8A42F9DB704700BFFEE7CE
:101AE00038B5002000906B4601227521682003F074
:101AF0003DFB2CA0FEF7F0FB9DF8000068280ED0FF
:101B000000BF3148006800F4E06030490843001D20
:101B10002D490860BFF34F8F00BF00BFFEE703F001
:101B200059FD00283CD1782004F05EFB10B91DA0BF
:101B3000FEF7D2FB782003F03BFC10B924A0FEF79F
:101B4000CBFBC82004F002FB10B92BA0FEF7C4FBAE
:101B500002F080FB10B932A0FEF7BEFB3D4803F057
:101B600070FB044602F0D0FD10B93BA0FEF7B4FBB9
:101B700040F2731002F016FA10B941A0FEF7ACFB68
:101B8000C82002F0F1FC10B947A0FEF7A5FB04F055
:101B9000D5FB012004F0D6F910B94CA0FEF79CFB50
:101BA00038BD00006D70755F7365745F73656E732B
:101BB0006F7220636F6D706C657465202E2E2E2EF3
:101BC0002E2E0D0A000000000CED00E00000FA05CA
:101BD0006D70755F636F6E6669677572655F666964
:101BE000666F20636F6D706C657465202E2E2E2ECF
:101BF0002E2E0D0A000000006D70755F7365745F16
:101C000073616D706C655F7261746520636F6D7078
:101C10006C657465202E2E2E2E2E2E0D0A000000CF
:101C2000646D705F6C6F61645F6D6F74696F6E5F20
:101C30006472697665725F6669726D77617265203C
:101C4000636F6D706C657465202E2E2E2E2E2E0DFA
:101C50000A00000060000020646D705F7365745FAF
:101C60006F7269656E746174696F6E20636F6D70F9
:101C70006C657465202E2E2E2E2E2E0D0A0000006F
:101C8000646D705F656E61626C655F6665617475D9
:101C9000726520636F6D706C657465202E2E2E2E1C
:101CA0002E2E0D0A00000000646D705F7365745F76
:101CB0006669666F5F7261746520636F6D706C65D5
:101CC0007465202E2E2E2E2E2E0D0A006D70755F3F
:101CD0007365745F646D705F737461746520636FA6
:101CE0006D706C657465202E2E2E2E2E2E0D0A0022
:101CF00070472DE9F0410246002500260020002310
:101D00000024002791F803C00CF00F0591F803C0E0
:101D10000CF0100CBCF1000F03D091F802C04CEA9B
:101D2000050591F800C0BCF1000F31D01468002007
:101D30002BE04FF0010C0CFA00F3B1F800C00CEAF4
:101D400003069E4220D183004FF00F0C0CFA03F7DC
:101D5000BC4305FA03FC4CEA040491F803C0BCF14F
:101D6000280F06D14FF0010C0CFA00FCC2F814C089
:101D70000AE091F803C0BCF1480F05D14FF0010C07
:101D80000CFA00FCC2F810C0401C0828D1D3146023
:101D9000B1F800C0BCF1FF0F34DD546800202EE024
:101DA00000F1080C4FF0010808FA0CF3B1F800C07C
:101DB0000CEA03069E4221D183004FF00F0C0CFA6F
:101DC00003F7BC4305FA03FC4CEA040491F803C092
:101DD000BCF1280F05D100F1080C08FA0CF8C2F884
:101DE000148091F803C0BCF1480F07D100F1080C32
:101DF0004FF0010808FA0CF8C2F81080401C0828BF
:101E0000CED35460BDE8F0810161704770B51748CA
:101E1000008800F40040002826D014480088C0F351
:101E20000D0513A0FEF758FA14211648FFF74DFED2
:101E3000002411E01448015D144801F098FB124899
:101E4000005D1049085500BF4021104801F0C2FA5A
:101E50000128F9D1601C84B2AC42EBDB0CA0FEF788
:101E60003BFA00200149088070BD00003C000020C2
:101E70000D0A53544D3332206765742064617461D8
:101E80003A090000B0000020C400002000380140E2
:101E90000D0A000000BFFEE770B505460E4600249F
:101EA00000F0FAF8284600F0BFF8641C00F04CF986
:101EB000304600F0B9F8641C00F046F900F0ECF888
:101EC000691CC8B200F0B0F8641C00F03DF90020B5
:101ED00000F074F8044600F013F9204670BD0000CD
:101EE00010B500200E4908600E48006820F47040CC
:101EF0000C4908600846006840F440500860002023
:101F00000949C1F8AC0100F011F80120044908604A
:101F100000F00CF800200449C1F8A80110BD000031
:101F2000A8812142040C01400080214210B502200A
:101F300001F0F4FF10BD000008B50121082000F0F9
:101F400027FD4FF44060ADF8000010208DF803002D
:101F500003208DF8020069460448FFF7CAFE4FF4DB
:101F600040610248FFF750FF08BD0000000C01402F
:101F700010B500200E4908600E48006820F470403B
:101F80000C4908600846006840F440500860012091
:101F90000949C1F8AC01FFF7C9FF012004490860F5
:101FA000FFF7C4FF00200449C1F8A80110BD0000DC
:101FB000A8812142040C01400080214270B50546F1
:101FC00000241648006820F4704014490860084650
:101FD000006840F400400860002614E0002010492A
:101FE0000860FFF7A3FF01200E49C1F8A8016006B1
:101FF000040E0B487C38006808B1601CC4B2FFF7BF
:1020000095FF701CC6B2082EE8DB15B9FFF7B0FFCC
:1020100001E0FFF765FF204670BD0000040C0140A1
:10202000A88121420080214270B50446174800680B
:1020300020F47040154908600846006840F440509C
:10204000086000201249086000251BE0E00920B16B
:1020500001200F49091D086003E000200C49091DFB
:1020600008606006040EFFF761FF01200849086060
:10207000FFF75CFF00200749C1F8A801FFF756FFF2
:10208000681CC5B2082DE1DB70BD0000040C0140E6
:10209000A88121420080214210B51648006820F432
:1020A0007040144908600846006840F440500860D9
:1020B0000120114908601148D0F82C0108B900200E
:1020C00010BD01200C49091F0860FFF72FFF0020F9
:1020D0000A49C1F8AC0108488038006808B10020FE
:1020E000EEE7FFF723FF00200349091F08600120E6
:1020F000E6E70000040C0140AC812142008021424F
:1021000010B50E48006820F470400C49086008467D
:10211000006840F4405008600020094908600949FF
:10212000C1F8AC01FFF702FF01200549086005492D
:10213000C1F8AC01FFF7FAFE10BD0000040C01402D
:10214000A88121420080214210B500241548006872
:1021500020F47040134908600846006840F40040CD
:102160000860012010490860FFF7E0FE01200F49D8
:10217000C1F8A801FFF7DAFE09E0601CC4B2642CC4
:1021800003DDFFF7BDFF002010BDFFF7CFFE0648BF
:10219000803800680028F0D10349091F0860012039
:1021A000F2E70000040C0140AC8121420080214292
:1021B00070B505460E46144631462846FFF76CFEBC
:1021C0002070012070BDF8B506460F4614461D4626
:1021D0006A4639463046FFF7EBFF2DB10120A0409B
:1021E0009DF80010084305E00120A0409DF8001074
:1021F00021EA0000C0B200909DF800203946304628
:1022000000F036F8F8BD2DE9F84307468846144635
:102210001D46089E6A4641463846FFF7C9FF28B367
:10222000601CFF2101FA00F0C4F108012944491E95
:10223000FF220A41104300F0FF09C5F1080006FA29
:1022400000F0C6B2C4F1070006419DF8000000EAA4
:10225000090000909DF80000304300909DF8002098
:102260004146384600F004F8BDE8F8830020FBE75B
:1022700037B504460D4602AB01222946204600F040
:1022800001F83EBD2DE9F04180460D4616461F4639
:102290000024FFF701FF4046FFF7C6FEFFF754FF9B
:1022A0002846FFF7C1FEFFF74FFF00BF06E0385D8D
:1022B000FFF7BAFEFFF748FF601CC4B2B442F6DB7A
:1022C000FFF71EFF0120BDE8F081000008B50121E5
:1022D000102000F05DFB4FF40050ADF8000003202B
:1022E0008DF8020014208DF8030069460148FFF7BD
:1022F00000FD08BD0010014010B5022000F010F8EC
:10230000032000F021F8002000F014F8002000F075
:1023100037F8002000F02BF8002000F01FF810BD67
:1023200038B50446032302226B21D0200094FFF726
:102330006AFF38BD38B50446022304221C21D02090
:102340000094FFF760FF38BD38B50446022304222D
:102350001B21D0200094FFF756FF38BD10B504466E
:10236000234601223721D020FFF72DFF10BD10B5E5
:102370000446234605226A21D020FFF724FF10BD22
:1023800010B50446234606226B21D020FFF71BFF21
:1023900010BD00BFFEE7000010B5234800783028CC
:1023A00002D02148007820B914211F48FFF78DFB87
:1023B00010BD1D48007841281FD101201B4908602D
:1023C000642001F085FD00201949C1F8B4016420A2
:1023D00001F07EFD012015490860642001F078FDC0
:1023E00000201349C1F8B401642001F071FD0120FF
:1023F0000E490860642001F06BFD0EA0FDF76CFF34
:1024000009491048FEF7E0F80E48FDF759FF0EA005
:10241000FDF762FF044801780CA0FDF75DFF0AA0FC
:10242000FDF75AFF00BFC3E7B0000020B40122420D
:1024300000002242776F726B696E6720666F723A96
:10244000200000009C0000200D0A00002563000011
:102450007047000070B5002100230F22C47804B338
:10246000154C246804F4E064C4F5E064210AC1F169
:102470000403CA40447804FA03F1847814402143E9
:1024800009010E4C0678A155047804F01F050124BB
:10249000AC4005786D11AD0005F1E025C5F80041AF
:1024A00009E0047804F01F050124AC40044D0678CF
:1024B000761145F8264070BD0CED00E000E400E028
:1024C00080E100E002490143024A116070470000C8
:1024D0000000FA050CED00E030B500240CE000250A
:1024E00006E00020074901EBC5010855681CC5B28C
:1024F000802DF6DB601CC4B2082CF0DB00F028F95C
:1025000030BD0000E800002030B585B01B480068F1
:1025100004F020FD044622460B4619A16846FDF74B
:10252000E7FE10236A461946184600F0BDF9174821
:10253000006804F00FFD044622460B4614A16846CD
:10254000FDF7D6FE10236A462021184600F0ACF9AC
:102550001248006804F0FEFC044622460B4610A117
:102560006846FDF7C5FE10236A463021184600F084
:102570009BF900F0EDF805B030BD00000000002030
:1025800050697463683A252E32660000040000200A
:10259000526F6C6C203A252E326600000800002035
:1025A00059617720203A252E32660000F0B5144696
:1025B00000267F2801DC3F2900DDF0BD0B46CF1748
:1025C00001EB5777FF10C7F10707FAB2CF1701EBFE
:1025D0005777FF10A1EBC707FDB2C5F1070701232D
:1025E000BB40DEB24CB10A4B03EBC0039B5C3343F0
:1025F000074F07EBC007BB5408E0054B03EBC003D4
:102600009B5CB343024F07EBC007BB5400BFD4E74A
:10261000E800002008B50121082000F0B9F94FF4C6
:102620007040ADF8000010208DF8030003208DF8F5
:10263000020069464248FFF75CFB0121042000F0DC
:10264000A7F94FF48070ADF8000010208DF803005A
:1026500003208DF8020069463A48FFF74AFB002044
:1026600039490860642001F033FC01203749C1F882
:10267000B8010021AE2000F047F90021D52000F07C
:1026800043F90021502000F03FF90021A82000F07C
:102690003BF900213F2000F037F90021D32000F062
:1026A00033F90021084600F02FF90021402000F006
:1026B0002BF900218D2000F027F90021142000F0D3
:1026C00023F90021202000F01FF90021022000F052
:1026D0001BF90021A12000F017F90021C02000F013
:1026E00013F90021DA2000F00FF90021122000F088
:1026F0000BF90021812000F007F90021EF2000F004
:1027000003F90021D92000F0FFF80021F12000F0AA
:10271000FBF80021DB2000F0F7F80021302000F06A
:10272000F3F80021A42000F0EFF80021A62000F02B
:10273000EBF80021AF2000F0E7F8FFF7CDFE08BD71
:10274000000C014000080140B88121420080214274
:1027500030B500241CE004F1B001C8B2002100F043
:10276000D3F80021084600F0CFF80021102000F037
:10277000CBF8002508E0084901EBC501085D0121FF
:1027800000F0C2F8681CC5B2802DF4DB601CC4B236
:10279000082CE0DB30BD0000E80000202DE9F84FF8
:1027A00080460F4616461C46BA462046E31704EB01
:1027B0005373DB1021464FEAE47C04EB5C7C4FEA68
:1027C000EC0CA4EBCC0CBCF1000F02D04FF0010CD0
:1027D00001E04FF0000C6344224604EBD27C4FEA48
:1027E0006C0C03FB0CF303F0FF0BA6F12000C6B248
:1027F00000254EE00C2C07D106EB4600274901EBE3
:102800008000405D009013E0102C05D1244800EBBF
:102810000610405D00900BE0182C07D106EBC600B7
:10282000204901EB8000405D009001E0BDE8F88F99
:102830004FF0000927E0009800F0800028B13946E9
:1028400040460A9AFFF7B2FE09E00A9808B901204B
:1028500000E00020024639464046FFF7A7FE0098F8
:102860004006000E0090781CC7B2A7EB0A00A042F9
:1028700005D1574608F1010000F0FF0806E009F114
:10288000010000F0FF09B9F1080FD4DB00BF681C9C
:10289000C5B25D45AEDB00BFC8E70000CC830008D1
:1028A00040880008308E0008F8B506460F461546E9
:1028B0001C4621E004EBD4714910C1F18001B14202
:1028C00002DA00263819C7B2C4F14000B84204DA6F
:1028D000002006460746FFF7FFFD012000902A78FA
:1028E000234639463046FFF759FF204604EBD071A6
:1028F00006EB6101CEB26D1C28787E2802DC2878B8
:102900002028D7DAF8BD000010B5144B1960002359
:10291000134CC4F8A031002216E000230F4C0C3CED
:10292000236000F080031BB10123241D236003E01A
:1029300000230A4C083C23600123084C0C3C236014
:102940004306180E531CDAB2082AE6DB0123054CB5
:102950002360054CC4F8BC3110BD0000BC8121428D
:1029600000002142A0012142008021427047000066
:1029700029B1064AD2690243044BDA6104E0034AF2
:10298000D2698243014BDA617047000000100240B7
:1029900029B1064A92690243044B9A6104E0034A52
:1029A00092698243014B9A61704700000010024017
:1029B00030B500210022002400232D4D6D6805F064
:1029C0000C0121B1042905D0082923D105E0294DA6
:1029D000056022E0274D05601FE0254D6D6805F478
:1029E0007012234D6D6805F48034022505EB924288
:1029F0001CB9214D554305600BE01D4D6D6805F474
:102A000000351DB11C4D5543056002E0194D55437D
:102A1000056002E0174D056000BF00BF144D6D68F2
:102A200005F0F0010909154D6B5C0568DD40456056
:102A30000F4D6D6805F4E061090A104D6B5C456847
:102A4000DD4085600A4D6D6805F46051C90A0B4D83
:102A50006B5C4568DD40C560054D6D6805F440411F
:102A6000890B074D6B5CC568B5FBF3F5056130BD9F
:102A70000010024000127A0000093D0020000020F2
:102A8000300000202DE9F04F91B00446894692466F
:102A90000EA88B490FAB0AAACDE9001089498A48D4
:102AA00001F0E4FB8648008800F4807000287DD0A7
:102AB0000A9804F01BFC05464FF09D4104F0E4FA2F
:102AC000824908600B9804F011FC05464FF09D41C7
:102AD00004F0DAFA7E4908600C9804F007FC054619
:102AE0004FF09D4104F0D0FA7A4908600D9804F047
:102AF000FDFB05464FF09D4104F0C6FA764908609B
:102B0000724801684FF0804004F050FC0590714815
:102B10000168059804F04AFC83466D4801684FF04F
:102B2000404004F043FC05906B480168059804F0B0
:102B30003DFC5946069004F039FA079004F00AFA71
:102B4000CDE9080100F068FE07464FF06632634B9E
:102B500003F026FF054603F0E9FC20605D480168AC
:102B60004FF0804004F022FC02905A48016802981D
:102B700004F01CFC8346564801684FF0404004F0C6
:102B800015FC029052480168029804F00FFC594667
:102B9000039004F009FD80464FF07E5104F006FAE0
:102BA000074604F0D7F9CDE9060100E084E0474884
:102BB00001684FF0804004F0F9FB0390444801683D
:102BC000039804F0F3FB8046424801684FF08040D0
:102BD00004F0ECFB039040480168039804F0E6FB26
:102BE0008346414604F0E2F9074604F0B3F9CDE923
:102BF0000401DDE9062301F057F84FF06632374B48
:102C0000CDE9080103F0CCFE054603F08FFCC9F8BE
:102C1000000031480168006804F0C8FB04902D48AA
:102C20000168006804F0C2FB02902948016800684E
:102C300004F0BCFB019025480168006804F0B6FB75
:102C40000090019904F0B2F98346029904F0ACFCBB
:102C50000390049904F0A8FC059004F07BF9054664
:102C60000E461D4801681948006804F09FFB049057
:102C7000184801681648006804F098FB039004990E
:102C800004F094F94FF08041059004F08FFB8346E7
:102C900004F060F92A463346CDE9060101F004F854
:102CA0004FF066320D4BCDE9080103F079FE07467F
:102CB00003F03CFCCAF8000011B0BDE8F08F000042
:102CC0004C00002046000020400000205000002062
:102CD00054000020580000205C00002066A64C40F4
:102CE000704710B500F002F810BD00000CB50020D0
:102CF000019000903348006840F48030314908600A
:102D000000BF3048006800F4003000900198401C7B
:102D10000190009818B90198B0F5A06FF1D1294839
:102D2000006800F4003010B10120009001E00020A4
:102D300000900098012843D12348006840F010001B
:102D4000214908600846006820F003000860084632
:102D5000006840F0020008601A484068194948605D
:102D60000846406848600846406840F48060486013
:102D70000846406820F47C1048600846406840F4EB
:102D8000E81048600846006840F08070086000BFA6
:102D90000C48006800F000700028F9D0094840682D
:102DA00020F00300074948600846406840F00200F0
:102DB000486000BF0348406800F00C000828F9D1C3
:102DC0000CBD00000010024000200240042808D181
:102DD0004FF0E021096941F004014FF0E022116158
:102DE00007E04FF0E021096921F004014FF0E022F3
:102DF000116170477047000010B51348006840F03B
:102E000001001149086008464068104908400E4911
:102E10004860084600680E4908400B4908600846AB
:102E2000006820F4802008600846406820F4FE0016
:102E300048604FF41F008860FFF753FF4FF00060B9
:102E40000449086010BD0000001002400000FFF8B7
:102E5000FFFFF6FE08ED00E02DE9FF47012188079E
:102E600000F051F8012819D10F48006804F072F8F9
:102E700004460D460D48006804F06CF806460F46FF
:102E80000B48006804F066F8804642460B4609A0ED
:102E9000CDE90067CDE90245FDF71EFA012188075B
:102EA00000F022F8BDE8FF870800002004000020A1
:102EB000000000200A0D20503D252E326609523DAB
:102EC000252E326609593D252E3266200A0D000056
:102ED00021B1028842F08002028004E002884FF6AD
:102EE0007F731A4002807047CA430282704721B143
:102EF000028842F00102028004E002884FF6FE736D
:102F00001A400280704730B502460020002300249A
:102F1000158A05EA0103958905EA010413B10CB18C
:102F2000012000E0002030BD70B500240022002305
:102F3000058C4FF6FE7635400584028C8388048B21
:102F40004FF68F752C40B51E2C400D882C43751EF6
:102F50002A400D892A434D882A43144DA8420BD09C
:102F6000134DA84208D0134DA84205D0124DA842D7
:102F700002D0124DA84213D14FF6F7752A404D8961
:102F80002A434FF6FB752A408D882A434FF6FF658A
:102F90002B404FF6FF552B408D892B43CD892B437A
:102FA00083800483CD888586028470BD002C014017
:102FB000003401400040014000440140004801400D
:102FC0000A460021018B4FF6F77319401143018324
:102FD0007047000070B5002400220023058C4FF6D6
:102FE000EF7635400584028C8388048B48F6FF75A4
:102FF0002C404FF6FF452C400D884FF6FF7606EA31
:1030000005252C434FF6DF752A400D8906EA051584
:103010002A434D8806EA05152A43154DA84202D0D9
:10302000144DA8421DD14FF67F752A404D894FF6A9
:10303000FF7606EA05152A434FF6BF752A408D88AC
:1030400006EA05152A434FF6FF352B404FF2FF7570
:103050002B408D8906EA85052B43CD8906EA850537
:103060002B4383800483CD880587028470BD0000D4
:10307000002C0140003401400A460021018B4FF230
:10308000FF7319404FF6FF7303EA022319430183CC
:103090007047000070B5002400220023058C4FF615
:1030A000FF6635400584028C8388848B4FF68F75CC
:1030B0002C404FF6FC752C400D882C434FF6FF55E5
:1030C0002A400D894FF6FF7606EA05252A434D88EA
:1030D00006EA05252A43154DA84202D0144DA84200
:1030E0001DD14FF2FF752A404D894FF6FF7606EA53
:1030F00005252A434FF6FF352A408D8806EA052527
:103100002A434EF6FF752B404DF6FF752B408D89F7
:1031100006EA05152B43CD8906EA05152B43838066
:103120008483CD888587028470BD0000002C014017
:10313000003401400A460021818B4FF6F773194095
:10314000114381837047000070B5002200230024E2
:10315000058C4EF6FF7635400584038C8488828B7F
:1031600048F6FF752A404FF6FF452A400D884FF676
:10317000FF7606EA05252A434DF6FF752B400D899B
:1031800006EA05352B434D8806EA05352B430B4DE2
:10319000A84202D00A4DA84208D14BF6FF752C4038
:1031A0008D894FF6FF7606EA85152C43848082834D
:1031B000CD88A0F84050038470BD0000002C014071
:1031C000003401400A460021818B4FF2FF73194001
:1031D0004FF6FF7303EA0223194381837047818608
:1031E00070470187704781877047A0F8401070478B
:1031F000002202881D4B98420ED01D4B98420BD0E6
:10320000B0F1804F08D01B4B984205D01A4B984222
:1032100002D01A4B984204D14FF68F731A404B8854
:103220001A43174B984207D0164B984204D04FF6DA
:10323000FF431A40CB881A4302808B8883850B8812
:1032400003850A4B98420BD0094B984208D00E4B8D
:10325000984205D00D4B984202D00D4B984201D1B7
:103260000B7A03860123838270470000002C014003
:10327000003401400004004000080040000C004001
:103280000010004000140040004001400044014094
:103290000048014010B540F225511D4800F0A7F844
:1032A00010B31B4800F05EF9C4B21A48008800F45D
:1032B0000040C8B91748008800F4804060B10A2C6B
:1032C00003D000201349088020E01248008840F411
:1032D00000401049088019E00D2C06D10D480088E7
:1032E00040F480400B49088010E00A480088C0F391
:1032F0000D0009490C5407480088401C0549088006
:1033000008460088132801DD0020088010BD000059
:10331000003801403C000020C400002010B586B0F9
:103320000446012144F20400FFF732FB4FF4007021
:10333000ADF8140003208DF8160018208DF8170042
:1033400005A91C48FEF7D5FC4FF48060ADF81400C9
:1033500004208DF8170005A91648FEF7CAFC2520A1
:103360008DF8000003208DF801008DF80200012087
:103370008DF803006846FFF76DF801940020ADF862
:103380000800ADF80A00ADF80C00ADF810000C20F4
:10339000ADF80E0001A9084800F078F8012240F2CB
:1033A0002551054800F04DF80121034800F006F8CA
:1033B00006B010BD000801400038014021B18289EB
:1033C00042F40052828104E082894DF6FF731A4074
:1033D0008281704702460020B1F5007F00D100BF16
:1033E00013880B400BB1012000E00020704770B53E
:1033F0000246002400230025002040F66A16B14250
:1034000000D100BFC1F3421501F01F03012606FAE7
:1034100003F3012D02D19689334006E0022D02D13B
:10342000168A334001E0968A33400C12012606FAD0
:1034300004F41688344013B10CB1012000E00020E0
:1034400070BDF0B50346002400260025002040F69C
:103450006A17B94200D100BF1846C1F3421401F007
:103460001F06012707FA06F5012C01D10C3004E0F4
:10347000022C01D1103000E014301AB107682F433C
:10348000076002E00768AF430760F0BD2DE9F04731
:1034900086B005460E460024A24600BFA14600277E
:1034A000B08900B100BF2F462C8A4CF6FF70044053
:1034B000F08804432C82AC894EF6F3100440B088A7
:1034C00031890843718908430443AC81AC8A4FF6C3
:1034D000FF400440B0890443AC8201A8FFF768FABA
:1034E0001F48874202D1DDF810A001E0DDF80CA0F2
:1034F000A88900F4004040B10AEBCA0000EB0A10B2
:1035000031684900B0FBF1F807E00AEBCA0000EBB4
:103510000A1031688900B0FBF1F86420B8FBF0F0C4
:1035200004012009642101FB1089A88900F40040EE
:1035300040B1322000EBC900B0FBF1F000F0070011
:10354000044308E0322000EB09106421B0FBF1F0E5
:1035500000F00F0004432C8106B0BDE8F0870000A6
:103560000038014001468888C0F308007047C1F365
:1035700008028280704700BFFEE7000008B5012105
:103580000420FFF705FAFF20ADF8000010208DF8A9
:10359000030003208DF8020069460248FEF7A9FBEC
:1035A00008BD00000008014030B589B005460C4652
:1035B00001210420FFF7DCF901210820FFF7E8F9D9
:1035C0004FF47070ADF8200003208DF82200182011
:1035D0008DF8230008A92148FEF78BFBADF81850A1
:1035E000ADF814400020ADF81A00ADF8160005A99A
:1035F0001B48FFF7FDFD6020ADF804000020ADF88A
:103600000C000120ADF8060001A91548FFF78CFC5D
:1036100008211348FFF7D4FC01A91148FFF7DAFC91
:1036200008210F48FFF728FD01A90D48FFF732FDDB
:1036300008210B48FFF77EFD01A90948FFF784FD2B
:1036400008210748FFF7BEFD01210548FFF740FCB0
:1036500001210348FFF74BFC09B030BD000C0140CD
:1036600000080040490050EAC12018BF04204A0D5C
:1036700018BF40F0010040F2FF72B2EB515F08BF8B
:1036800040F00200012808BF052070472DE9F041F5
:103690004F1E00EBC7010446D1E9000115461E4646
:1036A00037F006020DD02A46334603F079F97F1E23
:1036B00004EBC703D3E9002302F06AFF37F00602E8
:1036C000F1D1022F25D0042F13D0062F18BFBDE84B
:1036D000F0812A46334603F063F9D4E90A2302F065
:1036E00057FF2A46334603F05BF9D4E9082302F07A
:1036F0004FFF2A46334603F053F9D4E9062302F07C
:1037000047FF2A46334603F04BF9D4E9042302F07D
:103710003FFF2A46334603F043F9D4E9022302F07F
:1037200037FF2A46334603F03BF9D4E90023BDE8CE
:10373000F04102F02DBF012203F0DFBF02F028BFED
:10374000002213461046114602F0D2BF024A002062
:10375000110703F0D2BF000001FDFFFF30380A2837
:1037600001D20120704700207047014600BF70471A
:103770002DE9FE4F06460F460025684601F0DCF9AC
:10378000002442E056F8240057F82410A0EB010A68
:10379000BAF1000F01DB514601E0CAF10001084611
:1037A00003F0A4FD83464FF08F4103F06DFC80468B
:1037B0005DF82400002103F029FD16D05DF82410E7
:1037C000404603F061FC82464FF07E5103F0ECFE70
:1037D000814629F0004A0F48416A504603F0B2FE84
:1037E00012D20120A04005430EE00A48C1694046BC
:1037F00003F0A8FD05D30748016A404603F0A2FE86
:1038000002D20120A0400543641C032CBADB2846E9
:10381000BDE8FE8FA48300082DE9F04D8D4F21F007
:10382000004A86B005460C46BA452ADBAAEB0700DB
:1038300028430AD08848824501DC1AD1CDB106B0B0
:103840002846BDE8F04DFFF776BF844A844B2846F2
:1038500003F0A6F807460E46824A834B28462146C7
:1038600003F09EF806B03A463346BDE8F04D02F04C
:103870008FBE0120FCF754FF06B0BDE8F04DFFF706
:103880005FBF7A48824542DABAF1795F0BDA28469F
:10389000FFF7E8FE042808BFFFF758FF284606B0E8
:1038A0002146BDE8F08D2A460B46104603F078F815
:1038B000834602466E480E460B4606217844FFF7C3
:1038C000E5FE5A46334603F06BF8804669488A465F
:1038D0005A46334604217844FFF7D8FE5A46334609
:1038E00003F05EF800223B4602F052FE02460B4611
:1038F0004046514602F0FCFE2A46234603F050F8AB
:1039000006B02A462346BDE8F04D02F041BE2846E7
:1039100024F0004100223D463B4603F03FF94FF0C2
:10392000FF3203F0EAFE0646024653480F460B46B6
:1039300006217844FFF7AAFE32463B4603F030F8F2
:10394000CDE900014D4832463B4604217844FFF75B
:103950009DFE32463B4603F023F800222B4602F040
:1039600017FE834602913046394602F08DFD8046AF
:1039700043480D46504517DCDDE900015A46029BDD
:1039800002F0B6FE42462B4603F00AF842462B46AA
:1039900002F0FEFD012203F0B0FE304A304B03F08E
:1039A000EFF9304A304B4CE04FF0000A52460B46DC
:1039B000404602F0EDFDCDE9031052462B4610467D
:1039C000194602F0EDFF32463B4603F0E7F8DDE929
:1039D000033202F08DFE06460F46DDE900015A462D
:1039E000029B02F085FE8346009101223046394653
:1039F00003F083FE194A1A4B03F0D0F806460F462F
:103A000001224046294603F078FE5A46009B02F008
:103A1000C7FF32463B4603F0B3F906460F46012284
:103A20005046294603F069FE0E4DDFF858802A46BD
:103A3000434603F0B3F832463B4603F0AFF82A465C
:103A4000434603F0ABF8002CD8BF81F0004106B02C
:103A5000BDE8F08D0000F03F0000F07F075C1433FC
:103A600026A6913C182D4454FB21F93F0000E03F6D
:103A7000E0620000F66200006A62000080620000FE
:103A80003333EF3FFB21E93F2DE9F84F04460D4664
:103A900021F0004000917349814211DC7249884253
:103AA00001DC06D12CB120462946BDE8F84FFFF7CE
:103AB00042BE6E48002DCCBF6D496E49BDE8F88FFF
:103AC0006D49814211DD6D498142D8BF4FF0FF360B
:103AD0006DDD20462946FFF7C5FD042808BFFFF726
:103AE00035FE20462946BDE8F88F6549654F25F02B
:103AF0000045814233DD6449814219DD00263246AA
:103B00004FF080432046294602F042FD80468A4617
:103B100001222046294603F0F0FD00223B4603F037
:103B20002FF94246534602F0E3FD04460D463EE0BF
:103B300001260022BA463B462046294602F028FDCF
:103B400080460F46002253462046294603F018F9C6
:103B500042463B4602F0CCFD04460D4627E04B4969
:103B600081421BDDDFF828A10226002253462046B1
:103B7000294602F015FF00223B4602F009FD80466F
:103B80000F46002253462046294603F0F9F84246E4
:103B90003B4602F0ADFD04460D4608E003262246F2
:103BA0002B4600203B4902F0A3FD04460D46224669
:103BB0002B461046194602F0F3FE8B46824602461B
:103BC0000B4602F0EDFE07460246334888460B4698
:103BD00006217844FFF75AFD52465B4602F0E0FEAC
:103BE00082462E488B463A46434605217844FFF7E5
:103BF0004DFD3A46434602F0D3FE02460B46002EE8
:103C0000504659460CDA02F0C3FC22462B4602F01D
:103C1000C7FE01B022462B46BDE8F04F02F0BEBF02
:103C200002F0B6FC22462B4602F0BAFE1C4A7A4449
:103C300002EBC603D3E9002303F0A2F822462B4689
:103C400003F09EF8174A7A4402EBC603D3E9002337
:103C500002F0A4FF009A002AB8BF81F00041BDE83D
:103C6000F88F0000000010440000F07F182D44542D
:103C7000FB21F93FFB21F9BF0000DC3F0000203EA3
:103C80000000F33F0000F03F0000E63F00800340EB
:103C90000000F83F0000F0BFB2600000706000005C
:103CA0000E600000D65F00002DE9F04D9446CCF187
:103CB000000423F000464CEA0404524F46EAD47450
:103CC0009A46884621F00042BC4206D8454240EA66
:103CD000050442EAD474BC4204D9BDE8F04D624602
:103CE000FFF72CBDAAF14055A5F17F6555EA0C04FC
:103CF0000BD0022404EAAA74434DDFF810E144EA31
:103D0000D87452EA000B04D00CE0BDE8F04DFFF788
:103D1000BBBE002C14BF012CBDE8F08D022C30D0AE
:103D2000032C32D056EA0C0B0AD0BE4220D1BA4244
:103D300009D126F0804622F080423346114617E032
:103D400000291ADB25E0DFF8C8B0FB44002C04BFD3
:103D5000DBE90001BDE8F08D012C02BFDBE90001C9
:103D600081F00041BDE8F08D022C0AD0032C0CD06C
:103D7000BA4212D1B8F1000F0BDA23482549BDE849
:103D8000F08D28462449BDE8F08D28467146BDE8EF
:103D9000F08D1D482149BDE8F08D921B12153C2A7B
:103DA000C4BF19481D490EDCBAF1000FBEBF12F1A5
:103DB0003C0F0020014606DB624602F099FC21F030
:103DC0000041FFF761FE002C08BFBDE8F08D012C1B
:103DD00004BF81F00041BDE8F08D114A114B022C67
:103DE00007D002F0CDFF2A46BDE8F04D0A4B02F0A5
:103DF000C7BF02F0C5FF2A46BDE8F04D064B02F0F2
:103E0000CDBE00000000F07F182D4454FB2109C0F6
:103E10006A5F0000FB21F9BFFB210940FB21F93F4C
:103E2000075C143326A6A13C2DE9F0410446E07856
:103E300000F0C006E07800F03F05607800F0010077
:103E400098B1EF102846E91705EB5171C910A5EBA1
:103E5000C101491C01F0FF080B48006820B10A4865
:103E6000414602683846904700BF607800F008007D
:103E700030B10548406818B1B011034A516888470D
:103E80000020BDE8F0810000D800002010B56FF0E0
:103E90000400FEF79BFF0A4800680A49B0FBF1F0F6
:103EA000094908700846007800EB4001C1EBC010DA
:103EB0004FF6FF7101EAC0000449088010BD000000
:103EC0000C00002000127A00340000203600002090
:103ED0000146114A12884A434FF0E0235A610022FA
:103EE0009A611A46126942F001021A6100BF4FF04E
:103EF000E022106900F001021AB100F48032002AB9
:103F0000F5D04FF0E022126922F001024FF0E023D9
:103F10001A6100229A617047360000200146114A5A
:103F200012784A434FF0E0235A6100229A611A4600
:103F3000126942F001021A6100BF4FF0E0221069DD
:103F400000F001021AB100F48032002AF5D04FF0DF
:103F5000E022126922F001024FF0E0231A610022F0
:103F60009A6170473400002038B5044664B12020BF
:103F70008DF8000028208DF8010030208DF8020017
:103F800038208DF8030004E0A32204216846FCF7E2
:103F90003FFB6A46042140F69E2002F08DF901F0B5
:103FA0007DFD38BD3EB5044602208DF80000CA20D4
:103FB0008DF80100E3208DF8020009208DF8030040
:103FC0006A460421682002F077F9A3208DF80000EA
:103FD00004F0400048B1C0208DF80100C8208DF8E1
:103FE0000200C2208DF8030006E0A3208DF8010036
:103FF0008DF802008DF8030004F4C07048B1C420AD
:104000008DF80400CC208DF80500C6208DF8060040
:1040100006E0A3208DF804008DF805008DF8060059
:10402000A3208DF807008DF808008DF809006A4676
:104030000A2140F6A72002F03FF904F0030018B16E
:1040400020208DF8000002E0D8208DF800006A469C
:10405000012140F6B62002F02FF904F0200018B13B
:10406000012000F0ADF802E0002000F0A9F804F40F
:10407000C07008B304F4807060B1B2208DF8000005
:104080008B208DF80100B6208DF802009B208DF862
:1040900003000BE0B0208DF8000080208DF80100B7
:1040A000B4208DF8020090208DF803006A460421A8
:1040B00040F6A22002F000F904F0010020B3F8203D
:1040C0008DF800006A4601214FF40B6002F0F4F80D
:1040D000FA21072000F02CFC072000F0F3FB012060
:1040E00000F013FC642000F0F3FC4FF4FA7000F0D1
:1040F00002FDC821304800F0A3FB282000F0BCFBE3
:104100000A2000F0CCFB08E0D8208DF800006A46B9
:1041100001214FF40B6002F0CFF804F0020018B157
:10412000D9208DF8000002E0D8208DF800006A4602
:10413000012140F23D7002F0BFF804F0040018B114
:10414000012000F069F802E0002000F065F804F0BA
:10415000100018B10120FFF707FF02E00020FFF771
:1041600003FF44F008001549488101F097FC002046
:104170001249887304F0400018B10846807B801D06
:10418000887304F4C07020B10C48807B801D0B49FB
:10419000887304F0140020B10848807B1030074970
:1041A000887304F0030020B10448807B001D03499C
:1041B000887300203EBD000009E3CA02D800002039
:1041C0003EB504466CB10EA1D1E900208968CDE965
:1041D000002002916A4609214FF4976002F06CF8C2
:1041E0003EBD0AA2D2E900109268CDE90102009119
:1041F0006A4609214FF4976002F05EF8F0E700008C
:10420000B8AAB38DB4980D355D000000B8AAAAAA6B
:10421000B088C3C5C700000038B5044664B1C020EB
:104220008DF80000C2208DF80100C4208DF8020036
:10423000C6208DF8030004E08B2204216846FCF7B9
:10424000E7F96A46042140F6982002F035F801F0BB
:1042500025FC38BD10B5C8234FF48062024940F6F2
:10426000F63001F0AFFA10BD867700082DE9F04F67
:104270008DB00746884615469946DDE9166B002441
:10428000002030806B49887B5A4605A901F066FB07
:1042900018B1601E0DB0BDE8F08F6648807A00F05E
:1042A0001400002867D09DF8140000069DF8151032
:1042B00040EA01409DF8161040EA01209DF81710D1
:1042C000084328609DF8180000069DF8191040EA80
:1042D00001409DF81A1040EA01209DF81B10084388
:1042E00068609DF81C0000069DF81D1040EA014022
:1042F0009DF81E1040EA01209DF81F100843A86099
:104300009DF8200000069DF8211040EA01409DF82C
:10431000221040EA01209DF823100843E86004F1D0
:104320001000C4B22868001401906868001402905C
:10433000A86800140390E8680014049001984043B2
:10434000029901FB0100039901FB0100049901FBA3
:10435000010ABAF1706F02DBBAF1885F05DD01F086
:104360009DFB00203080401E94E7B6F9000040F429
:104370008070308000BF2F48807A00F0400020B36A
:1043800005A9601C085C095D40EA012000B2A8F89C
:10439000000005A9E01C095C05AAA01C105C41EA0C
:1043A000002000B2A8F8020005A9601D095C201DCC
:1043B000105C41EA002000B2A8F80400A01DC4B2BD
:1043C000B6F9000040F0080030801A48408900F437
:1043D000C07008B305A9601C085C095D40EA0120B3
:1043E00000B2388005A9E01C095C05AAA01C105C7D
:1043F00041EA002000B2788005A9601D095C201DFB
:10440000105C41EA002000B2B880A01DC4B2B6F929
:10441000000040F0700030800648807A00F0030011
:1044200018B105A90819FFF7FFFC484601F084FF01
:1044300000202FE7D800002070B588B0064601A8FC
:1044400001F014F8BDF804000021C90341EA504509
:10445000C4034448007A00F0030056F82000059099
:104460004048007A00F0040010B1059840420590E1
:104470003C48007AC0F3C10056F820000690394845
:10448000007A00F0200010B10698404206903548AE
:10449000007AC0F3811056F8200007903148008957
:1044A00000F4807010B10798404207900598C1173A
:1044B000A0FB042301FB043100FB0510810041EA4D
:1044C000927005900698C117A0FB042301FB0431EC
:1044D00000FB0510810041EA927006900798C11711
:1044E000A0FB042301FB043100FB0510810041EA1D
:1044F000927007900598000E8DF808000598000C42
:104500008DF809000598000A8DF80A000598C0B2D8
:104510008DF80B000698000E8DF80C000698000C24
:104520008DF80D000698000A8DF80E000698C0B2AE
:104530008DF80F000798000E8DF810000798000CFA
:104540008DF811000798000A8DF812000798C0B284
:104550008DF8130002AA0C214FF4257001F0ACFE77
:1045600008B070BDD800002030B585B0044616A252
:1045700007CA02AB07C3C82C03DD4FF0FF3005B0FC
:1045800030BDC82090FBF4F0401E85B2280A8DF89B
:104590000000E8B28DF801006A46022140F21620C0
:1045A00001F08AFE10B14FF0FF30E8E702AA0C21BB
:1045B00040F6C12001F080FE10B14FF0FF30DEE781
:1045C000044884810020DAE7FEF2ABC4AAF1DFDF01
:1045D000BBAFDFDFD80000201FB504464848007A93
:1045E00000F0030054F8200001904548007A00F0E4
:1045F000040010B10198404201904148007AC0F394
:10460000C10054F8200002903D48007A00F02000DC
:1046100010B10298404202903948007AC0F38110EC
:1046200054F8200003903648008900F4807010B1DF
:104630000398404203903349019880FB0101800FA9
:1046400040EA810001902F49029880FB011082000E
:1046500042EA917002902B49039880FB011082007E
:1046600042EA917003900198000E8DF800000198C5
:10467000000C8DF801000198000A8DF802000198E5
:10468000C0B28DF803006A4604214FF4747001F043
:1046900013FE18B14FF0FF3004B010BD0298000EA9
:1046A0008DF800000298000C8DF801000298000AB5
:1046B0008DF802000298C0B28DF803006A4604210A
:1046C0004FF4757001F0F8FD10B14FF0FF30E3E7E3
:1046D0000398000E8DF800000398000C8DF801007F
:1046E0000398000A8DF802000398C0B28DF8030009
:1046F0006A4604214FF4767001F0DEFDCCE700003D
:10470000D800002009E3CA0210B586B0044647A0CD
:104710000068039046A00068029046A000680190DF
:1047200045A00068009004F0030003A9085C8DF820
:10473000140003A8C4F3C101405C8DF8150003A860
:10474000C4F38111405C8DF8160004F0030002A947
:10475000085C8DF8100002A8C4F3C101405C8DF81C
:10476000110002A8C4F38111405C8DF8120005AA63
:10477000032140F2264001F09FFD18B14FF0FF30B9
:1047800006B010BD04AA032140F22A4001F094FDB6
:1047900010B14FF0FF30F3E70198059000980490B6
:1047A00004F0040058B19DF8140040F001008DF8A9
:1047B00014009DF8100040F001008DF8100004F086
:1047C000200058B19DF8150040F001008DF815004B
:1047D0009DF8110040F001008DF8110004F4807084
:1047E00058B19DF8160040F001008DF816009DF8B4
:1047F000120040F001008DF8120005AA03214FF4C9
:10480000886001F059FD10B14FF0FF30B8E704AAFD
:10481000032140F2314001F04FFD10B14FF0FF3065
:10482000AEE7064804810020AAE700004CCD6C00EA
:104830000CC92C003656760026466600D8000020AB
:10484000F8B505460E464FF47A7095FBF0F000FB84
:1048500006F4200E8DF80000200C8DF80100200ACF
:104860008DF80200E0B28DF803006A4604214FF48F
:10487000AE7001F021FDF8BD38B50446052094FB6B
:10488000F0F084B220128DF80000E0B28DF8010043
:104890006A4602214FF4AD7001F00EFD38BD38B507
:1048A0000446052094FBF0F084B220128DF800003D
:1048B000E0B28DF801006A4602214FF4AC7001F0BD
:1048C000FBFC38BD38B504460020009004F0010020
:1048D00020B19DF8000040F03000009004F002008C
:1048E00020B19DF8000040F00C00009004F004009E
:1048F00020B19DF8000040F0030000906A460121BD
:104900004FF4A47001F0D8FC38BD38B50446012C32
:1049100001DA012402E0042C00DD0424601EC0B290
:1049200000906A46012140F24F1001F0C5FC38BDED
:104930002DE9FC4706460F4606F0070010B1B7F513
:10494000C86F03DD4FF0FF30BDE8FC87384602F04A
:10495000E5FC8146594902F097FB8046684600F025
:104960005FFD9DF80000022806D0042816D0082814
:1049700026D0102848D135E04FF08D41404602F056
:1049800015FD814602F092FC84B24D49404602F08A
:104990000DFD814602F08AFC85B238E04FF08C4173
:1049A000404602F003FD814602F080FC84B2454996
:1049B000404602F0FBFC814602F078FC85B226E01E
:1049C0004FF08B41404602F0F1FC814602F06EFC54
:1049D00084B23D49404602F0E9FC814602F066FCA3
:1049E00085B214E04FF08A41404602F0DFFC814678
:1049F00002F05CFC84B23549404602F0D7FC8146A7
:104A000002F054FC85B202E04FF0FF309CE700BF9B
:104A100020128DF80400E0B28DF8050028128DF800
:104A20000600E8B28DF8070006F00100A0B101AA67
:104A300002214FF4EA7001F03FFC10B14FF0FF305B
:104A400082E70DF1060202214FF4927001F034FC6E
:104A500010B14FF0FF3077E706F00200A0B101AAD5
:104A600002214FF4EC7001F027FC10B14FF0FF3041
:104A70006AE70DF1060202214FF4947001F01CFC6C
:104A800010B14FF0FF305FE706F00400A0B101AABB
:104A900002214FF4EE7001F00FFC10B14FF0FF3027
:104AA00052E70DF1060202214FF4967001F004FC6A
:104AB00010B14FF0FF3047E7002045E700004843C2
:104AC000000040460000C045000040450000C044D2
:104AD00038B50446052094FBF0F085B228128DF815
:104AE0000000E8B28DF801006A4602214FF4EF7031
:104AF00001F0E2FB38BD38B50446052094FBF0F028
:104B000085B228128DF80000E8B28DF801006A46DF
:104B100002214FF4ED7001F0CFFB38BD00BF054A14
:104B2000128802F04002002AF9D0C2B2014B1B1DCC
:104B30001A807047003801407CB50546284949680D
:104B4000087801AB04220D2100F010FB08B107200A
:104B50007CBD9DF80700C0F301109DF8041001F022
:104B6000E00140EAE1008DF800009DF80700C0F385
:104B700081009DF8051001F0E00140EAE1008DF8A8
:104B800001009DF8070000F003009DF8061001F0F9
:104B9000E00140EAE1008DF8020000241CE01DF86D
:104BA000040018B9002045F8240013E00D4845F82A
:104BB000240006E055F824000B4902F0F7FB45F805
:104BC00024001DF80400401EC0B20DF804000028A7
:104BD000F0D100BF601CC4B2032CE0DB0020B7E7BB
:104BE000700000207B14AE3E1D5A843F2DE9F04F2B
:104BF00087B005460C46914601208DF81000002034
:104C00008DF81100FE4A1268917CFD4A52681078B6
:104C100004AB022200F0E5FA20B14FF0FF3007B0FC
:104C2000BDE8F08FC820FFF753F900208DF8100081
:104C3000F34A1268D17BF24A5268107804AB012221
:104C400000F0CFFA10B14FF0FF30E8E7EC4A1268FD
:104C50005179EB4A5268107804AB012200F0C1FA96
:104C600010B14FF0FF30DAE7E54A1268917CE44A70
:104C70005268107804AB012200F0B3FA10B14FF083
:104C8000FF30CCE7DE4A1268D17DDD4A52681078E9
:104C900004AB012200F0A5FA10B14FF0FF30BEE7DF
:104CA000D74A12681179D64A5268107804AB0122AB
:104CB00000F097FA10B14FF0FF30B0E70C208DF8FC
:104CC0001000CF4A12681179CD4A5268107804ABAF
:104CD000012200F086FA10B14FF0FF309FE70F205D
:104CE000FFF7F6F8C648806A407A8DF81000C44A8B
:104CF00012689178C24A5268107804AB012200F021
:104D000070FA10B14FF0FF3089E7BD48806A007A31
:104D10008DF81000BA4A12685178B94A5268107872
:104D200004AB012200F05DFA10B14FF0FF3076E7DE
:104D3000B9F1000F07D0B248806A807A40F0E000F5
:104D40008DF8100004E0AE48806A807A8DF810007B
:104D5000AB4A12689179AA4A5268107804AB0122D2
:104D600000F03FFA10B14FF0FF3058E7B9F1000FF3
:104D700007D0A348806AC07A40F0E0008DF81000A8
:104D800003E0A048C07A8DF810009D4A1268D179DE
:104D90009B4A5268107804AB012200F022FA10B14D
:104DA0004FF0FF303BE7B9F1000F02D0C820FFF70A
:104DB0008FF840208DF81000914A12681179904ABE
:104DC0005268107804AB012200F00BFA10B14FF0DA
:104DD000FF3024E778208DF81000894A1268517955
:104DE000874A5268107804AB012200F0FAF910B13A
:104DF0004FF0FF3013E783498889FFF769F80020F7
:104E00008DF810007E4A126851797D4A52681078F8
:104E100004AB012200F0E5F910B14FF0FF30FEE6DF
:104E2000774A1268917A764A5268107804AB022267
:104E300000F09CF910B14FF0FF30F0E69DF8110042
:104E40009DF8101040EA012B0C209BFBF0F0C6B23D
:104E50000020A86068602860A060606020608246D2
:104E600065E0674A1268D17A654A5268107804ABE7
:104E70000C2200F07BF910B14FF0FF30CFE69DF827
:104E800011009DF8101040EA012000B2ADF80800B2
:104E90009DF813009DF8121040EA012000B2ADF811
:104EA0000A009DF815009DF8141040EA012000B298
:104EB000ADF80C00BDF90810206808442060BDF969
:104EC0000A10606808446060BDF90C10A0680844CE
:104ED000A0609DF817009DF8161040EA012000B26E
:104EE000ADF800009DF819009DF8181040EA012067
:104EF00000B2ADF802009DF81B009DF81A1040EAC0
:104F0000012000B2ADF80400BDF900102868084483
:104F10002860BDF90210686808446860BDF9041093
:104F2000A8680844A8600AF1010000F0FF0AB24531
:104F300097DB3448D0F800C02868C117090441EA5B
:104F400010410704624600233846FBF794F93246C5
:104F50000023CDE90201FBF78EF928602948D0F83B
:104F600000C06868C117090441EA1041070462469D
:104F700000233846FBF77FF932460023CDE90201D2
:104F8000FBF779F968601F48D0F800C0A868C1171E
:104F9000090441EA10410704624600233846FBF742
:104FA0006AF932460023CDE90201FBF764F9A860F3
:104FB0001448D0F804C02168C817000440EA11481A
:104FC0000F046246002338464146FBF754F9324647
:104FD0000023CDE90201FBF74EF920600948D0F823
:104FE00004C06068C117090441EA10410704624621
:104FF00000233846FBF73FF93246002304E0000067
:1050000070000020A4830008CDE90201FBF733F90A
:1050100060601148D0F804C0A068C117090441EAD3
:1050200010410704624600233846FBF724F9324654
:105030000023CDE90201FBF71EF9A060A06800285B
:1050400004DDA068A0F58030A06003E0A06800F552
:105050008030A0600020E2E5A48300082DE9FC5F19
:1050600006460F4600253D494968087801AB0322F2
:105070000D2100F07BF810B10720BDE8FC9F9DF8E2
:10508000040000F01F008DF804009DF8050000F0FA
:105090001F008DF805009DF8060000F01F008DF838
:1050A0000600002456E056F8240057F82410A0EB20
:1050B000010BBBF1000F01DB594601E0CBF1000110
:1050C000084602F013F94FF08F41009001F0DCFF29
:1050D000814601A8005D68B32149086802F01EF905
:1050E000834659461F4801F0CFFF804604E01E4921
:1050F000404602F05BF9804601A8005D401EC0B248
:1051000001A908550028F2D14146484601F0BCFFEC
:1051100083464FF07E5102F047FA82462AF0004B58
:105120000F488169584602F00DFA12D20120A040C2
:1051300005430EE00A480169484602F003F905D329
:1051400007484169484602F0FDF902D20120A0401B
:105150000543641C032CA6DB28468EE77000002064
:10516000A483000800B04C4554E3853F2DE9F0418D
:1051700006460F4614461D46FCF78EFF10B9012067
:10518000BDE8F0817106080EFCF74EFFFCF7DCFF6E
:1051900018B9FCF7B5FF0120F2E73846FCF744FFE9
:1051A000FCF7D2FFFCF778FF012101EB4601C8B202
:1051B000FCF73AFFFCF7C8FF0DE0012C04D10020FA
:1051C000FCF7FCFE287003E00120FCF7F7FE2870D6
:1051D0006D1C601EC4B2002CEFD1FCF791FF0020C3
:1051E000CEE72DE9F04105460E4617469846FCF7F6
:1051F00053FF10B90120BDE8F0816906080EFCF7E5
:1052000013FFFCF7A1FF18B9FCF77AFF0120F2E7C2
:105210003046FCF709FFFCF797FF00240BE018F875
:105220000400FCF701FFFCF78FFF18B9FCF768FFDB
:105230000020E0E7641CBC42F1DBFCF761FF0020CA
:10524000D9E770B50546284600F00FF80446E81C7B
:1052500000F00BF844EAC00084B2A81D00F005F885
:1052600044EA801084B2204670BD014691F90020C6
:10527000002A01DD00201EE091F90020002A01DA59
:10528000042018E091F90120002A01DD012012E03C
:1052900091F90120002A01DA05200CE091F90220A1
:1052A000002A01DD022006E091F90220002A01DA3D
:1052B000062000E007207047FDF79EFDFEF7E6FDA3
:1052C0004FF4A060FDF7FEF84FF4E130FEF726F84A
:1052D000FCF7FCFFFEF752F9002141F61F40FEF7F4
:1052E00063F9FDF797F9102325A200210846FDF781
:1052F000DBFAFDF72DFA4FF47A70FEF7E9FDFDF7C2
:10530000EBF84FF47A612248FDF769FF4FF47A61B8
:105310001F48FDF766FF4FF47A611D48FDF763FFF4
:105320004FF47A611A48FDF760FFFCF705FEFCF7C1
:10533000E3FFFCF7D5FB17A0FAF7CEFF1EE00A202B
:10534000FEF7C6FD154A16491648FDF79BFB204699
:10535000641C0A2190FBF1F201FB120050B9FDF729
:10536000D3F8642C06DB00240F480068C0430F49C3
:10537000C1F8B401FCF74AFDFDF70EF8DFE70000C5
:1053800053595354454D2053746172742055700025
:10539000000800404F4B0D0A0000000008000020EC
:1053A0000400002000000020B4012242000022423C
:1053B00070B50446002624F00104184890F8240033
:1053C00008B1002070BD1548807A10B94FF0FF3049
:1053D000F8E71248057C807A204010490874084696
:1053E000007CA04202D04FF0FF3600E0002614B946
:1053F0000A48007D18B1012000F0FEFF02E0002005
:1054000000F0FAFF3CB100F049FB20B103480574FD
:105410004FF0FF30D6E73046D4E7000070000020A0
:1054200001461148407A30B1012807D0022808D03F
:1054300003280CD108E0022008700BE0042008705B
:1054400008E00820087005E01020087002E04FF026
:10545000FF30704700BF0448C07C18B10878400690
:10546000000E08700020F4E7700000200146134889
:10547000407A30B1012808D002280AD0032810D180
:105480000BE04FF4804008800EE041F69C700880ED
:105490000AE04FF48050088006E04FF40060088076
:1054A00002E04FF0FF30704700BF0448C07C10B1ED
:1054B0000888401008800020F5E7000070000020F8
:1054C00001460248007C08700020704770000020F0
:1054D00001460F48007A30B1012807D0022809D0D0
:1054E00003280FD10AE0FA2008800EE04FF4FA708A
:1054F00008800AE04FF47A70088006E04FF4FA6002
:10550000088002E00020088000BF00BF0020704734
:105510007000002001460E48007A30B1012807D003
:10552000022808D003280CD108E00A4808600BE0E4
:105530000948086008E00948086005E00848086074
:1055400002E04FF0FF30704700BF0020FBE7000093
:105550007000002000000343000083423333034205
:105560003333834101461248C07A082817D2DFE856
:1055700000F01704070A0D101318BC20088013E070
:105580006220088010E02A2008800DE014200880A6
:105590000AE00A20088007E00520088004E000BF38
:1055A00000BF0020088000BF00BF0020704700003F
:1055B000700000200146064890F8240010B14FF01A
:1055C000FF3070470248C08908800020F9E70000DA
:1055D000700000201CB580208DF80000654A12681C
:1055E000917C644A526810786B460122FFF7F9FDFE
:1055F00010B14FF0FF301CBD6420FEF769FC0020A5
:105600008DF800005B4A1268917C5A4A5268107803
:105610006B460122FFF7E5FD10B14FF0FF30EAE7DE
:10562000544A1268917D534A526810786B4606229C
:10563000FFF79CFD10B14FF0FF30DCE79DF805004F
:10564000C007400F9DF8031001F0010140EA41003E
:105650009DF8011001F0010140EA010494B1012C10
:1056600003D101214348C17431E0022C03D1002150
:105670004048C1742BE021463FA0FAF72DFE4FF0C1
:10568000FF30B8E73B4A1268D1783A4A526810783E
:105690006B460122FFF76AFD10B14FF0FF30AAE719
:1056A0009DF8000000F00F042CB93D48FAF714FEF5
:1056B0004FF0FF309FE7042C06D13AA0FAF70CFE1A
:1056C00001212C48C17402E000212A48C174FF2145
:1056D00028488172FF2027490872FF21254841721E
:1056E000C1724FF6FF71C181FF21017481740121E4
:1056F000017380F82210002180F823104175017594
:105700001630016041608160163880F8241080F8FE
:105710002510C1844FF4FA6000F05CFC10B14FF02A
:10572000FF3068E7022000F025FB10B14FF0FF309A
:1057300061E72A2000F0C8FC10B14FF0FF305AE7B3
:10574000322000F003FD10B14FF0FF3053E700208E
:10575000FFF72EFE10B14FF0FF304CE7002000F0B5
:105760004BFB10B14FF0FF3045E7002000F03CFD4F
:10577000002040E770000020556E737570706F72E6
:1057800074656420736F6674776172652070726FE0
:1057900064756374207265762025642E0A0000000B
:1057A000549D000848616C662073656E7369746966
:1057B00076697479207061727420666F756E642EDC
:1057C0000D0A00002DE9F04385B005460E469046CF
:1057D0009946294890F8250020B14FF0FF3005B0D8
:1057E000BDE8F08316B94FF0FF30F8E7002423E05E
:1057F000281B102801DD102000E0281B87B2321979
:105800003946204600F058FD10B14FF0FF30E6E772
:1058100001AA3946204600F001F910B14FF0FF30DF
:10582000DDE730193A4601A9FAF7A2FE10B16FF090
:105830000100D4E7E01984B2AC42D9DB4FEA28205A
:105840008DF8000008F0FF008DF801000A4A126888
:10585000917E094A526810786B460222FFF7C1FC1C
:1058600010B14FF0FF30BAE70121034880F825104E
:10587000A0F826900020B2E77000002038B504465A
:10588000282C02DD4FF0FF3038BDDCB9002000F0DD
:10589000E5FB00208DF8000007208DF801002E4A5E
:1058A0001268917C2C4A526810786B460222FFF7EE
:1058B00098FC10B14FF0FF30E6E700212648017553
:1058C0000020E1E7012000F0C9FB20208DF8000056
:1058D000012C06D100208DF80100052000F0F4FB1A
:1058E00017E0052C06DC01208DF80100052000F0F2
:1058F000EBFB0EE0142C06DC02208DF801000A20E0
:1059000000F0E2FB05E003208DF80100142000F018
:10591000DBFB9DF80100072101EB8010C0B28DF880
:1059200001000D4A1268917C0B4A526810786B4650
:105930000222FFF756FC10B14FF0FF30A4E7082118
:105940000548817200210173012101750020FFF7D4
:105950002FFD002098E7000070000020F8B50446F5
:105960000F4616462C4890F8240010B94FF0FF302F
:10597000F8BD2948807A10B94FF0FF30F8E7264A81
:105980001268917A244A526810786B460222FFF717
:10599000EDFB10B14FF0FF30EAE79DF801009DF8F4
:1059A000001040EA0125A54203DA00203070401EB5
:1059B000DEE7194840684088B5EB600F17DD164AEE
:1059C0001268517C144A526810786B460122FFF726
:1059D000CDFB10B14FF0FF30CAE79DF8000000F09A
:1059E000100020B100F05AF86FF00100C0E7E2B2F9
:1059F000094B1B68D97A084B5B6818783B46FFF760
:105A0000B5FB10B14FF0FF30B2E795FBF4F0401E4C
:105A100030700020ACE7000070000020F8B50446AC
:105A20000D46164616B94FF0FF30F8BD1A48807A79
:105A300010B94FF0FF30F8E720128DF80000E0B207
:105A40008DF801009DF801002844134949684989EF
:105A5000884202DD4FF0FF30E7E70F4A1268117EFF
:105A60000D4A526810786B460222FFF7BAFB10B15C
:105A70004FF0FF30D9E7EAB2074B1B68597D064B60
:105A80005B6818783346FFF771FB10B14FF0FF30B9
:105A9000CBE70020C9E700007000002008B56D4882
:105AA000807A10B94FF0FF3008BD00200090694A9D
:105AB0001268D17B674A526810786B460122FFF763
:105AC00090FB10B14FF0FF30EEE7624A1268517957
:105AD000604A526810786B460122FFF782FB10B1D2
